{"abi":[{"type":"constructor","inputs":[],"stateMutability":"nonpayable"},{"type":"function","name":"deposit","inputs":[],"outputs":[],"stateMutability":"payable"},{"type":"function","name":"getBalance","inputs":[],"outputs":[{"name":"","type":"uint256","internalType":"uint256"}],"stateMutability":"view"},{"type":"function","name":"getOwner","inputs":[],"outputs":[{"name":"","type":"address","internalType":"address"}],"stateMutability":"view"},{"type":"function","name":"getUserBalance","inputs":[{"name":"user","type":"address","internalType":"address"}],"outputs":[{"name":"","type":"uint256","internalType":"uint256"}],"stateMutability":"view"},{"type":"function","name":"withdraw","inputs":[],"outputs":[],"stateMutability":"nonpayable"},{"type":"event","name":"Deposit","inputs":[{"name":"user","type":"address","indexed":true,"internalType":"address"},{"name":"amount","type":"uint256","indexed":false,"internalType":"uint256"}],"anonymous":false},{"type":"event","name":"Withdraw","inputs":[{"name":"user","type":"address","indexed":true,"internalType":"address"},{"name":"amount","type":"uint256","indexed":false,"internalType":"uint256"}],"anonymous":false},{"type":"error","name":"Vault__NotOwner","inputs":[]}],"bytecode":{"object":"0x60a0604052348015600e575f5ffd5b503373ffffffffffffffffffffffffffffffffffffffff1660808173ffffffffffffffffffffffffffffffffffffffff16815250506080516107706100705f395f81816101060152818161019001528181610257015261030f01526107705ff3fe608060405260043610610049575f3560e01c806312065fe01461004d5780633ccfd60b14610077578063477348921461008d578063893d20e8146100c9578063d0e30db0146100f3575b5f5ffd5b348015610058575f5ffd5b506100616100fd565b60405161006e9190610496565b60405180910390f35b348015610082575f5ffd5b5061008b610104565b005b348015610098575f5ffd5b506100b360048036038101906100ae919061050d565b6102c7565b6040516100c09190610496565b60405180910390f35b3480156100d4575f5ffd5b506100dd61030c565b6040516100ea9190610547565b60405180910390f35b6100fb610333565b005b5f47905090565b7f000000000000000000000000000000000000000000000000000000000000000073ffffffffffffffffffffffffffffffffffffffff163373ffffffffffffffffffffffffffffffffffffffff1614610189576040517f349667bc00000000000000000000000000000000000000000000000000000000815260040160405180910390fd5b5f4790505f7f000000000000000000000000000000000000000000000000000000000000000073ffffffffffffffffffffffffffffffffffffffff16826040516101d29061058d565b5f6040518083038185875af1925050503d805f811461020c576040519150601f19603f3d011682016040523d82523d5f602084013e610211565b606091505b5050905080610255576040517f08c379a000000000000000000000000000000000000000000000000000000000815260040161024c906105fb565b60405180910390fd5b7f000000000000000000000000000000000000000000000000000000000000000073ffffffffffffffffffffffffffffffffffffffff167f884edad9ce6fa2440d8a54cc123490eb96d2768479d49ff9c7366125a9424364836040516102bb9190610496565b60405180910390a25050565b5f5f5f8373ffffffffffffffffffffffffffffffffffffffff1673ffffffffffffffffffffffffffffffffffffffff1681526020019081526020015f20549050919050565b5f7f0000000000000000000000000000000000000000000000000000000000000000905090565b5f5f5f3373ffffffffffffffffffffffffffffffffffffffff1673ffffffffffffffffffffffffffffffffffffffff1681526020019081526020015f20549050807fffffffffffffffffffffffffffffffffffffffffffffffffffffffffffffffff61039f9190610646565b3411156103e1576040517f08c379a00000000000000000000000000000000000000000000000000000000081526004016103d8906106e9565b60405180910390fd5b34816103ed9190610707565b5f5f3373ffffffffffffffffffffffffffffffffffffffff1673ffffffffffffffffffffffffffffffffffffffff1681526020019081526020015f20819055503373ffffffffffffffffffffffffffffffffffffffff167fe1fffcc4923d04b559f4d29a8bfc6cda04eb5b0d3c460751c2402c5c5cc9109c346040516104739190610496565b60405180910390a250565b5f819050919050565b6104908161047e565b82525050565b5f6020820190506104a95f830184610487565b92915050565b5f5ffd5b5f73ffffffffffffffffffffffffffffffffffffffff82169050919050565b5f6104dc826104b3565b9050919050565b6104ec816104d2565b81146104f6575f5ffd5b50565b5f81359050610507816104e3565b92915050565b5f60208284031215610522576105216104af565b5b5f61052f848285016104f9565b91505092915050565b610541816104d2565b82525050565b5f60208201905061055a5f830184610538565b92915050565b5f81905092915050565b50565b5f6105785f83610560565b91506105838261056a565b5f82019050919050565b5f6105978261056d565b9150819050919050565b5f82825260208201905092915050565b7f5769746864726177206661696c656400000000000000000000000000000000005f82015250565b5f6105e5600f836105a1565b91506105f0826105b1565b602082019050919050565b5f6020820190508181035f830152610612816105d9565b9050919050565b7f4e487b71000000000000000000000000000000000000000000000000000000005f52601160045260245ffd5b5f6106508261047e565b915061065b8361047e565b925082820390508181111561067357610672610619565b5b92915050565b7f4465706f73697420616d6f756e7420776f756c64206361757365206f766572665f8201527f6c6f770000000000000000000000000000000000000000000000000000000000602082015250565b5f6106d36023836105a1565b91506106de82610679565b604082019050919050565b5f6020820190508181035f830152610700816106c7565b9050919050565b5f6107118261047e565b915061071c8361047e565b925082820190508082111561073457610733610619565b5b9291505056fea2646970667358221220ac6037d887fb88558585efe492e4531a4874ad0c192b40786aaa2ee66470c27464736f6c634300081e0033","linkReferences":{}},"methodIdentifiers":{"deposit()":"d0e30db0","getBalance()":"12065fe0","getOwner()":"893d20e8","getUserBalance(address)":"47734892","withdraw()":"3ccfd60b"},"id":19}